:10000000AEC00000C7C00000C5C00000C3C00000F3
:10001000C1C00000BFC00000BDC00000BBC00000E8
:10002000B9C00000B7C00000B5C00000A3C2000006
:100030000DC30000AFC00000ADC00000ABC00000A9
:10004000A9C00000A7C00000A5C00000A3C0000018
:10005000A1C000009FC000009DC000009BC0000028
:1000600099C0000097C0000095C0000093C0000038
:1000700091C0000000010000AB001200020000BDB2
:10008000002200220000DF003F00210000CF000915
:10009000000300001E01040103090422011C0203E5
:1000A000090440011C000001C10600120100020009
:1000B000000020C0167C0400010102000109022298
:1000C00000010100C0320904000001030101000920
:1000D0002111010001223F000705830308000105EB
:1000E000010906A10175019508050719E029E71521
:1000F00000250181029501750881039505750105AB
:10010000081901290591029501750391039506755A
:1001100008150025680507190029688100C0040337
:1001200009041C0344006F006D0065007300740037
:10013000690063004800610063006B007300000009
:100140001C034F00700065006E0020006900430032
:100150006100620069006E006500740000001124F7
:100160001FBECFEFD2E0DEBFCDBF11E0A0E0B1E017
:10017000E0E9F9E002C005900D92AE36B107D9F77B
:1001800011E0AEE6B1E001C01D92AC38B107E1F775
:1001900041D0FCC335CF1F93182F80E090E0612F32
:1001A000E7D3812F90E023E0880F991F2A95E1F78C
:1001B000ACE7B1E0FC01E55FFE4F28E001900D9255
:1001C0002150E1F7A4E8B1E0FC01E55CFE4F88E0D6
:1001D00001900D928150E1F720E0612F70E040E93D
:1001E00051E011C0449A88EE93E0FA013197F1F79B
:1001F0000197D9F744988CED95E0FA013197F1F722
:100200000197D9F72F5F822F90E06817790754F78D
:100210001F910895FF920F931F93CF93DF9380E870
:100220008093610010926100569A5E9A14B89FEF15
:1002300095B990E197B988B95E9830D1C0E9D1E01D
:1002400007C080E197E2FE013197F1F70197D9F7F6
:1002500039D18823B1F35E9A80E090E081D3809316
:100260006E0190910A01891710F010926E01809131
:100270006E0191DF11E000E130E2F32EC0E9D1E040
:1002800096B19074809109019817A9F0992341F4CF
:1002900085B18F7C85B9109204011092050107C0C9
:1002A00085B1806385B900930401F09205019093B4
:1002B000090110936F0196B1907890937B01809122
:1002C00008019817B1F0992371F480916E018F5F46
:1002D00080936E0190910A01981710F410926E01AC
:1002E00080916E0158DF80917B018093080110930B
:1002F0006F0193B1917090937B01809100019817E9
:1003000079F0992319F480917C0102C080918401D5
:1003100060E023D180917B018093000110936F01F5
:1003200093B1927090937B0180910101981779F0BD
:10033000992319F480917D0102C08091850160E0CC
:100340000CD180917B018093010110936F0193B1D7
:10035000947090937B0180910201981779F0992312
:1003600019F480917E0102C08091860160E0F5D091
:1003700080917B018093020110936F0193B198707B
:1003800090937B0180910301981779F0992319F4D8
:1003900080917F0102C08091870160E0DED0809172
:1003A0007B018093030110936F0193B1907190933F
:1003B0007B01809104019817B1F080910901882395
:1003C00019F4992319F405C0992319F48091800137
:1003D00002C08091880160E0C0D080917B01809351
:1003E000040110936F0193B1907290937B018091FF
:1003F00005019817B1F080910901882319F4992318
:1004000019F405C0992319F48091810102C08091EB
:10041000890160E0A2D080917B0180930501109357
:100420006F0193B1907490937B01809106019817AE
:1004300079F0992319F48091820102C080918A0198
:1004400060E08BD080917B018093060110936F0157
:1004500093B1907890937B0180910701981779F080
:10046000992319F48091830102C080918B0160E08F
:1004700074D080917B018093070110936F0180916C
:100480006F01813009F0FCCE10926F0188E592E097
:10049000FE013197F1F70197D9F7F2CE80EA809308
:1004A000D80086E089BD09B400FEFDCF80E88093C6
:1004B000D8001092E000109278018CE08093E20066
:1004C0007894089580917801089580917801882327
:1004D00009F441C02FB7F89483E08093E90090912C
:1004E000E4009E5C33E08091E80085FD0EC02FBFE4
:1004F00080917801882379F18091E400891759F17E
:100500002FB7F8943093E900EECF8091700180937B
:10051000F1001092F100809171018093F1008091BF
:1005200072018093F100809173018093F1008091BA
:1005300074018093F100809175018093F1008091A6
:1005400076018093F1008AE38093E80010927901AC
:100550002FBF80E008958FEF08956093700180931E
:100560007101B3DF882329F4109270011092710198
:10057000ACCF08951F920F920FB60F9211242F93B4
:100580008F939F938091E1001092E100982F83FF59
:100590000FC01092E90081E08093EB001092EC0014
:1005A00082E28093ED0088E08093F0001092780161
:1005B00092FF44C080917801882309F43FC02091C4
:1005C0006B012223D9F180917A018F5F80937A01A8
:1005D00090E083709070892B89F583E08093E90027
:1005E0008091E80085FF2AC0809179018F5F809318
:1005F0007901821719F51092790180917001809329
:10060000F1001092F100809171018093F1008091CE
:1006100072018093F100809173018093F1008091C9
:1006200074018093F100809175018093F1008091B5
:1006300076018093F1008AE38093E8009F918F9187
:100640002F910F900FBE0F901F9018951F920F9231
:100650000FB60F9211240F931F932F933F934F9335
:100660005F936F937F938F939F93AF93BF93EF931A
:10067000FF931092E9008091E80083FF5BC14091F5
:10068000F1003091F1008091F100682F70E020912D
:10069000F100922F80E0682B792B8091F100A82F38
:1006A000B0E02091F100922F80E0A82BB92B10919F
:1006B000F1000091F10082EF8093E800363009F0FC
:1006C0005AC02BE730E0A90145505040F901379757
:1006D000859194918617970701F5FA018591949178
:1006E0008A179B07D1F49A012E5F3F4FF90165915C
:1006F00074912E5F3F4FF9014491212F30E0902FEC
:1007000080E0282B392B2F3F310519F010F02FEF07
:1007100030E0241758F4422F09C0295F3F4F495F4A
:100720005F4FF0E02C3A3F0789F604C15EEF8091FD
:10073000E800282F30E0C90185709070892BB9F34B
:1007400022FDFBC0342F413208F030E2232FCB01D1
:1007500006C0FC010196E491E093F10021502223B0
:10076000C1F7630F711D431B5093E8004423F9F652
:100770003032E9F2E2C0353061F48EEF8093E80068
:100780008091E80080FFFCCF862F80688093E30093
:10079000D4C0393031F5442309F071C06093780139
:1007A0008EEF8093E80085EA90E021E02093E90055
:1007B000FC010196E491E093EB00EE2369F0AC01BB
:1007C0004F5F5F4FFC0184918093EC00CA0101965A
:1007D000FA0134913093ED002F5F253039F78EE127
:1007E00049C0383051F4403809F049C08091E800E0
:1007F00080FFFCCF809178017BC03323D1F48091BE
:10080000E80080FFFCCF423811F080E00DC0A093DB
:10081000E9008091EB0090E025E0969587952A9578
:10082000E1F781701092E9008093F1001092F100DD
:100830007DC0313011F0333011F5423001F56115D2
:100840007105E9F42A2F2F77822F81508430B8F474
:100850008EEF8093E8002093E900333009F46AC0FA
:1008600089E18093EB0081E090E002C0880F991F3E
:100870002A95E2F78093EA001092EA005EC0AB2B63
:1008800009F058C0413AB9F5313009F58091E800D6
:1008900080FFFCCF809170018093F1001092F100F5
:1008A000809171018093F100809172018093F10039
:1008B000809173018093F100809174018093F10025
:1008C000809175018093F1008091760111C03230E2
:1008D00039F48091E80080FFFCCF80916B0108C063
:1008E000333041F58091E80080FFFCCF80916C01AE
:1008F0008093F1001BC04132E9F4393061F48091FA
:10090000E80082FFFCCF8091F100809377018BEFAC
:100910008093E8000BC03A3029F470936B01109279
:10092000790104C03B3031F460936C018EEF809309
:10093000E80003C081E28093EB00FF91EF91BF914B
:10094000AF919F918F917F916F915F914F913F9167
:100950002F911F910F910F900FBE0F901F90189520
:10096000F999FECF92BD81BDF89A992780B5089577
:10097000262FF999FECF1FBA92BD81BD20BD0FB6BB
:10098000F894FA9AF99A0FBE01960895F894FFCF59
:10099000010204081020408080FF051A1B04070F85
:1009A0000F0F0F1A1B04070F120F121A1B04070F49
:1009B0000D0F0D1A1B04070D0E0F0F1A1B04070D48
:1009C0000D0D0D1D180C120B0D0E0F081C14061921
:1009D000191919081C1406190A190A081C140619F1
:1009E000111911081C140611131919081C140611E9
:0E09F0001111111709100A151113197D0100BC
:00000001FF
